:020000040800F2
:100000000000022081080008D1080008D10800087B
:10001000D1080008D1080008D1080008000000003D
:10002000000000000000000000000000D1080008EF
:10003000D108000800000000D1080008D10800081D
:10004000D1080008D1080008D1080008D10800082C
:10005000D1080008D1080008D1080008D10800081C
:10006000D1080008D1080008D1080008D10800080C
:10007000D1080008D1080008D1080008D1080008FC
:10008000D1080008D1080008D1080008D1080008EC
:10009000D1080008D1080008D1080008D1080008DC
:1000A000D1080008D1080008D1080008D1080008CC
:1000B000D1080008D108000800000000D10800089D
:1000C000D1080008D1080008D1080008D1080008AC
:1000D000D1080008BD070008D1080008D1080008B1
:1000E000D1080008D108000800000000000000004E
:1000F0000000000000000000000000000000000000
:1001000000000000D108000800000000D10800082D
:10011000D108000800000000D1080008000000001D
:10012000D1080008D1080008D1080008D10800084B
:10013000D1080008D1080008D1080008000000001C
:10014000D1080008D1080008D1080008D10800082B
:10015000D1080008D1080008D1080008D10800081B
:10016000D1080008D1080008D108000800000000EC
:1001700000000000D108000800000000000000009E
:10018000D1080008D1080008D1080008D1080008EB
:08019000D10800080000000086
:100198000348044B834202D0034B03B1184770470E
:1001A8000000002000000020000000000548064B69
:1001B8001B1AD90F01EBA301491002D0034B03B15D
:1001C80018477047000000200000002000000000D1
:1001D80010B5064C237843B9FFF7DAFF044B13B187
:1001E8000448AFF300800123237010BD00000020F5
:1001F800000000001C09000808B5054B1BB10549A3
:100208000548AFF30080BDE80840FFF7CFBF00BF47
:1002180000000000040000201C09000810B584B08C
:1002280010B10146002214E0302000F071FA1EE0FF
:10023800104BA3FB0103DB08184603EB8303A1EB78
:100248004303303302F11001694401F80C3C0146C4
:1002580001320029ECD107E004F110036B4413F8D4
:100268000C0C00F055FA2246541E002AF4D104B0B2
:1002780010BD00BFCDCCCCCC10B5041E03DB20468E
:10028800FFF7CCFF10BD2D2000F042FA6042FFF7C7
:10029800C5FFF7E738B5022819D1032A13D9B1F9F0
:1002A8000050B1F90240134800F03CFA2846FFF725
:1002B800E3FF114800F036FA2046FFF7DDFF0F484C
:1002C80000F030FA14E00E4800F02CFA10E0044672
:1002D8000C4800F027FA23090B4DE85C00F018FAE7
:1002E80004F00F04285D00F013FA084800F01AFA29
:1002F80038BD00BF4C09000858090008600900080B
:1003080038090008680900088409000880090008FD
:1003180008B50CE0AA280AD12D4B01221A7006E074
:100328002C4B18702C4B1870294B02221A7000F0B5
:1003380081FA00284BD000F089FA254B1B78042B52
:10034800F5D801A252F823F01D030008290300087C
:100358006503000885030008B10300081F4B1870E7
:100368001D4A1378434013701D4B00221A7018B9A8
:100378000422174B1A70DAE70322FAE7184B1B78A6
:100388003F2B01D8174AD0540133DBB2144A1370FB
:1003980011490A7842400A70104A12789342C6D32B
:1003A8000B4B04221A70C2E70B4B1B78834206D012
:1003B8000D4800F0B7F9064B00221A70B7E7074B53
:1003C8001A780849034B1878FFF764FFF3E708BD6C
:1003D800600000205F0000205C0000205E0000201C
:1003E8005D0000201C0000209809000800B583B0BB
:1003F800C3B2C0F30720AA228DF8002001228DF88D
:10040800012002228DF802208DF803308DF80400B7
:10041800434083F003038DF805300621684600F059
:10042800FDF903B05DF804FB10B500F025F84FF4B2
:10043800E13000F037F94FF4E13000F07DF900F0D9
:10044800ADF80B4800F06EF90A4800F06BF94FF46C
:100458007A640A2000F096F8FFF75AFF0A34B4F5D8
:100468007A6FF6D300F0F2F8FFF7C0FF0024F0E748
:10047800B0090008D4090008334A936D43F080534B
:100488009365BFF34F8FA2F5D032136823F4C0638E
:1004980043F4007313602D4B5B6913F4806FFAD13A
:1004A8002B4A136823F4E06323F0070343F4E06363
:1004B80043F004031360264B1B6803F00703042B67
:1004C800F9D1214A136843F4807313601E4B1B68EB
:1004D80013F4806FFAD01C4A136823F080731360FA
:1004E800194B1B6813F0007FFAD1174B194ADA60D1
:1004F8001A6842F080721A60134B1B6813F0007F71
:10050800FAD0114B9A686FF30D129A609A6842F00C
:1005180003029A600C4B9B6803F00C030C2BF9D177
:10052800094A936D43F010039365BFF34F8F0A4B4D
:1005380000221A605A60DA604F2199620821196016
:10054800012159611A617047001002400070004093
:1005580000200240020A00010010004078B1431E4A
:100568009BB2074AD362002353621361136843F0B6
:1005780001031360024B1B6913F0010FFAD0704797
:100588000010004038B50546002404E04FF47A70A6
:10059800FFF7E4FF0134AC42F8D338BD10B5284B5F
:1005A800DA6C42F00102DA64BFF34F8F4FF09042E9
:1005B800116841F003011160D16821F00301D16095
:1005C800DA6C42F40052DA64BFF34F8F1D4A936825
:1005D80043F4403393601C4CA36823F00053A3609A
:1005E800A36843F08053A3601920FFF7B7FFA368FF
:1005F80023F08043A360A36843F00043A360124B39
:100608009B68002BFBDB104B1A6842F001021A6052
:100618009A6842F001029A600B4B1B6813F0010FB5
:10062800FAD0094A4FF00043D3604FF4A073136324
:10063800536923F4603343F42033536110BD00BF82
:100648000010024000030450000004500C4A936854
:1006580043F0040393600A4B1B6813F0040FFAD0AD
:10066800074B1B6CC3F30B0340F6E44202FB03F396
:10067800044880FB0320184440F3CF20704700BF94
:100688000000045081000880054AD2F8883043F4FD
:100698007003C2F88830BFF34F8FBFF36F8F704776
:1006A80000ED00E00146174BDA6C42F00102DA6413
:1006B8009A6D42F400329A65BFF34F8F4FF0904322
:1006C8001A6822F0F00242F0A0021A601A6A22F4B4
:1006D8007F4242F4EE421A629A6842F0F0029A604F
:1006E800DA6822F0F002DA60074B00221A605A60DA
:1006F8009A600648B0FBF1F080B2D8600D221A600B
:10070800704700BF001002400044004000B4C40419
:10071800034BDB6913F0800FFAD0014B1885704743
:100728000044004010B5044602E00134FFF7F0FF32
:1007380020780028F9D110BD01461A4BDA6C42F036
:100748000102DA641A6E42F480421A66BFF34F8FD0
:100758004FF090431A6822F4701242F420121A6083
:100768005A6A22F47F6242F4EE625A629A6842F44C
:1007780070129A60DA6822F47012DA600A4B00226A
:100788001A605A609A600948B0FBF1F080B2D860EC
:100798002D221A60064B102283F8252320225A6046
:1007A800704700BF001002400038014000B4C40484
:1007B80000E100E0104BDB6913F00E0F02D00E4A87
:1007C8000E21116213F0200F14D00B4B9B8CDAB260
:1007D8000A4B1B68013303F03F0309490968994232
:1007E80008D010B405490868064C22540B605DF81F
:1007F800044B7047704700BF003801406800002074
:10080800640000206C000020034BDB6913F0800FAC
:10081800FAD0014B188570470038014070B506467C
:100828000D46002403E0305DFFF7EEFF0134AC42D3
:10083800F9D370BD034B1868034B1B68C01A18BF67
:10084800012070476800002064000020074B1A68E8
:10085800074B1B689A42F9D0054A13680549C85CDA
:100868001368013303F03F031360704768000020EA
:10087800640000206C000020DFF834D0FFF704FF8C
:100888000C480D490D4A002302E0D458C4500433E3
:10089800C4188C42F9D30A4A0A4C002301E01360B9
:1008A8000432A242FBD300F011F8FFF7BDFDFEE7CA
:1008B800000002200000002000000020180A0008A4
:1008C80000000020AC000020FEE7000070B50D4BD2
:1008D8000D4D5B1B9C100026A64209D100F01AF8AA
:1008E8000A4D0B4B5B1B9C100026A64205D170BD20
:1008F80055F8043B98470136EEE755F8043B98470E
:100908000136F2E7080A0008080A0008080A000881
:100918000C0A0008F8B500BFF8BC08BC9E46704732
:10092800F8B500BFF8BC08BC9E4670470000000040
:100938005B504F535D20626164206C656E6774681C
:100948000D0A00005B504F535D20783D0000000009
:1009580020636D2020793D0020636D0D0A000000A2
:100968005B52585D20756E6B6E6F776E2074797070
:1009780065203078000000000D0A00003031323365
:100988003435363738394142434445460000000083
:100998005B52585D20636865636B73756D20657283
:1009A800726F720D0A0000000D0A3D3D3D2057533D
:1009B8004E20706F736974696F6E20525820746589
:1009C8007374203D3D3D0D0A0000000057616974B5
:1009D800696E6720666F7220706F736974696F6ED5
:1009E800206672616D65732066726F6D20726F622A
:1009F8006F745F6573702E2E2E0D0A0D0A000000AD
:080A08000102000800000000DB
:080A1000D901000800000000FC
:040000050800088166
:00000001FF
